{
  "contractName": "Gaming",
  "abi": [
    {
      "inputs": [],
      "stateMutability": "nonpayable",
      "type": "constructor"
    },
    {
      "anonymous": false,
      "inputs": [
        {
          "indexed": false,
          "internalType": "address",
          "name": "funder",
          "type": "address"
        },
        {
          "indexed": false,
          "internalType": "uint256",
          "name": "value",
          "type": "uint256"
        }
      ],
      "name": "GameFunded",
      "type": "event"
    },
    {
      "anonymous": false,
      "inputs": [
        {
          "indexed": false,
          "internalType": "address",
          "name": "player",
          "type": "address"
        },
        {
          "indexed": false,
          "internalType": "uint256",
          "name": "value",
          "type": "uint256"
        },
        {
          "indexed": false,
          "internalType": "uint256",
          "name": "mysteryNumber",
          "type": "uint256"
        },
        {
          "indexed": false,
          "internalType": "uint256",
          "name": "displayNumber",
          "type": "uint256"
        }
      ],
      "name": "PlayerLost",
      "type": "event"
    },
    {
      "anonymous": false,
      "inputs": [
        {
          "indexed": false,
          "internalType": "address",
          "name": "player",
          "type": "address"
        },
        {
          "indexed": false,
          "internalType": "uint256",
          "name": "value",
          "type": "uint256"
        },
        {
          "indexed": false,
          "internalType": "uint256",
          "name": "mysteryNumber",
          "type": "uint256"
        },
        {
          "indexed": false,
          "internalType": "uint256",
          "name": "displayNumber",
          "type": "uint256"
        }
      ],
      "name": "PlayerWon",
      "type": "event"
    },
    {
      "inputs": [],
      "name": "online",
      "outputs": [
        {
          "internalType": "bool",
          "name": "",
          "type": "bool"
        }
      ],
      "stateMutability": "view",
      "type": "function",
      "constant": true
    },
    {
      "inputs": [
        {
          "internalType": "address",
          "name": "",
          "type": "address"
        }
      ],
      "name": "players",
      "outputs": [
        {
          "internalType": "uint256",
          "name": "wins",
          "type": "uint256"
        },
        {
          "internalType": "uint256",
          "name": "losses",
          "type": "uint256"
        }
      ],
      "stateMutability": "view",
      "type": "function",
      "constant": true
    },
    {
      "inputs": [
        {
          "internalType": "uint256",
          "name": "display",
          "type": "uint256"
        },
        {
          "internalType": "bool",
          "name": "guess",
          "type": "bool"
        }
      ],
      "name": "winOrLose",
      "outputs": [
        {
          "internalType": "bool",
          "name": "",
          "type": "bool"
        },
        {
          "internalType": "uint256",
          "name": "",
          "type": "uint256"
        }
      ],
      "stateMutability": "payable",
      "type": "function",
      "payable": true
    },
    {
      "inputs": [
        {
          "internalType": "uint256",
          "name": "number",
          "type": "uint256"
        },
        {
          "internalType": "uint256",
          "name": "display",
          "type": "uint256"
        },
        {
          "internalType": "bool",
          "name": "guess",
          "type": "bool"
        }
      ],
      "name": "determineWinner",
      "outputs": [
        {
          "internalType": "bool",
          "name": "",
          "type": "bool"
        }
      ],
      "stateMutability": "pure",
      "type": "function",
      "constant": true
    },
    {
      "inputs": [],
      "name": "withdrawFunds",
      "outputs": [],
      "stateMutability": "nonpayable",
      "type": "function"
    },
    {
      "inputs": [],
      "name": "fundGame",
      "outputs": [],
      "stateMutability": "payable",
      "type": "function",
      "payable": true
    }
  ],
  "bytecode": "0x608060405234801561001057600080fd5b50336000806101000a81548173ffffffffffffffffffffffffffffffffffffffff021916908373ffffffffffffffffffffffffffffffffffffffff1602179055506001600060146101000a81548160ff0219169083151502179055506107628061007b6000396000f3fe6080604052600436106100555760003560e01c8063171273a51461005a57806324600fc3146100c15780635cd9f87a146100d8578063e169bf6c14610105578063e2eb41ff1461010f578063fc541ef31461017b575b600080fd5b34801561006657600080fd5b506100a96004803603606081101561007d57600080fd5b8101908080359060200190929190803590602001909291908035151590602001909291905050506101d2565b60405180821515815260200191505060405180910390f35b3480156100cd57600080fd5b506100d6610241565b005b3480156100e457600080fd5b506100ed61032e565b60405180821515815260200191505060405180910390f35b61010d610341565b005b34801561011b57600080fd5b5061015e6004803603602081101561013257600080fd5b81019080803573ffffffffffffffffffffffffffffffffffffffff16906020019092919050505061043c565b604051808381526020018281526020019250505060405180910390f35b6101b36004803603604081101561019157600080fd5b8101908080359060200190929190803515159060200190929190505050610460565b6040518083151581526020018281526020019250505060405180910390f35b600060011515821515141561020857828411156101f2576001905061023a565b82841015610203576000905061023a565b610239565b6000151582151514156102385782841115610226576000905061023a565b82841015610237576001905061023a565b5b5b5b9392505050565b60008054906101000a900473ffffffffffffffffffffffffffffffffffffffff1673ffffffffffffffffffffffffffffffffffffffff163373ffffffffffffffffffffffffffffffffffffffff16146102e5576040517f08c379a000000000000000000000000000000000000000000000000000000000815260040180806020018281038252602181526020018061070c6021913960400191505060405180910390fd5b3373ffffffffffffffffffffffffffffffffffffffff166108fc479081150290604051600060405180830381858888f1935050505015801561032b573d6000803e3d6000fd5b50565b600060149054906101000a900460ff1681565b60008054906101000a900473ffffffffffffffffffffffffffffffffffffffff1673ffffffffffffffffffffffffffffffffffffffff163373ffffffffffffffffffffffffffffffffffffffff16146103e5576040517f08c379a000000000000000000000000000000000000000000000000000000000815260040180806020018281038252602181526020018061070c6021913960400191505060405180910390fd5b7f5c963fd7fde519af29d56159e6e3e18db4e5d3e4716c39c87958cf9e4862ed583334604051808373ffffffffffffffffffffffffffffffffffffffff1681526020018281526020019250505060405180910390a1565b60016020528060005260406000206000915090508060000154908060010154905082565b60008060011515600060149054906101000a900460ff1615151461048357600080fd5b343373ffffffffffffffffffffffffffffffffffffffff16311161050f576040517f08c379a00000000000000000000000000000000000000000000000000000000081526004018080602001828103825260128152602001807f496e73756666696369656e742066756e6473000000000000000000000000000081525060200191505060405180910390fd5b60006105196106ea565b905060006105288287876101d2565b90506000600160003373ffffffffffffffffffffffffffffffffffffffff1673ffffffffffffffffffffffffffffffffffffffff168152602001908152602001600020905060011515821515141561064b57600181600001600082825401925050819055507ff845694883f2dce22b02fff31d909bbe718a9d566a5a6a2fecd944cf3fc3c3103334858a604051808573ffffffffffffffffffffffffffffffffffffffff16815260200184815260200183815260200182815260200194505050505060405180910390a13373ffffffffffffffffffffffffffffffffffffffff166108fc600234029081150290604051600060405180830381858888f1935050505015801561063b573d6000803e3d6000fd5b50600183945094505050506106e3565b6000151582151514156106df57600181600101600082825401925050819055507f193f8ecc500dc5f9e076d61f9ab3c8f4cadf8d2369c0b72730ebf5c586106b033334858a604051808573ffffffffffffffffffffffffffffffffffffffff16815260200184815260200183815260200182815260200194505050505060405180910390a1600083945094505050506106e3565b5050505b9250929050565b6000806001600a600143034060001c8161070057fe5b06019050809150509056fe4f6e6c79206f776e65722063616e2063616c6c20746869732066756e6374696f6ea26469706673582212203445c56af4d1c4599b2bdb7bd53b8886ad51d028af5b4aa3d479b312ea67104664736f6c634300060c0033",
  "immutableReferences": {},
  "source": "pragma solidity 0.6.12;\n\ncontract Gaming {\n/* Our Online gaming contract*/\n    address owner;\n    bool public online ;\n    struct Player  {\n        uint wins;             \n        uint losses;           \n    }                          \n    mapping(address => Player) public players;    \n    \n    /*Player public player;*/\n\n    constructor() public {\n        owner = msg.sender;\n        online = true;\n    }\n\n    modifier isOwner() {\n        require(msg.sender == owner, \"Only owner can call this function\");\n        _;\n    }\n    \n    event PlayerWon(address player, uint value, uint mysteryNumber, uint displayNumber);\n    event PlayerLost(address player, uint value, uint mysteryNumber, uint displayNumber);\n    event GameFunded(address funder, uint value);\n    \n    /* TODO: Fix when the mysteryNumber is equal to display*/\n    function winOrLose(uint display, bool guess)\n    external payable returns (bool, uint) {\n        require(online==true);\n        require(msg.sender.balance > msg.value, \"Insufficient funds\");\n        uint mysteryNumber_ = mysteryNumber();\n        bool isWinner = determineWinner(mysteryNumber_, display, guess);\n        Player storage player = players[msg.sender];\n        if (isWinner == true) {\n          /* Player won */\n          player.wins += 1; \n          emit PlayerWon(msg.sender, msg.value, mysteryNumber_, display);\n          msg.sender.transfer(msg.value*2);\n          return (true, mysteryNumber_);\n        } else if (isWinner == false) {\n          /* Player lost */\n          player.losses += 1;\n          emit PlayerLost(msg.sender, msg.value, mysteryNumber_, display);\n          return (false, mysteryNumber_);\n        }\n    }\n    \n    function mysteryNumber() private view returns (uint) {\n        uint randomNumber = uint(blockhash(block.number - 1)) % 10 + 1;\n        return randomNumber;\n    }\n    \n    function determineWinner(uint number, uint display, bool guess)\n    public pure returns (bool) {\n        /* Use true for higher guess, false for a lower guess */\n    \n        if (guess == true) {\n            if (number > display ) {\n                return true;\n            }\n            if (number < display) {\n                return false;\n            }\n        } else if (guess == false) {\n            if (number > display ) {\n                return false;\n            }\n            if (number < display) {\n                return true;\n            }\n        }\n    }\n\n    function withdrawFunds() public isOwner  {\n        msg.sender.transfer(address(this).balance);\n    }\n\n    function fundGame() public isOwner payable {\n        emit GameFunded(msg.sender, msg.value);\n    }\n}\n",
  "sourcePath": "/home/henry/Code/learning_path/ethereum/mystery_number_game/contracts/Gaming.sol",
  "compiler": {
    "name": "solc",
    "version": "0.6.12+commit.27d51765.Emscripten.clang"
  },
  "schemaVersion": "3.3.3",
  "updatedAt": "2021-01-20T23:47:21.145Z",
  "networkType": "ethereum",
  "devdoc": {
    "kind": "dev",
    "methods": {},
    "version": 1
  },
  "userdoc": {
    "kind": "user",
    "methods": {},
    "version": 1
  }
}